{
  "contractName": "TokenB",
  "abi": [
    {
      "inputs": [
        {
          "internalType": "string",
          "name": "_name",
          "type": "string"
        },
        {
          "internalType": "string",
          "name": "_symbol",
          "type": "string"
        },
        {
          "internalType": "uint256",
          "name": "supply",
          "type": "uint256"
        }
      ],
      "stateMutability": "nonpayable",
      "type": "constructor"
    },
    {
      "anonymous": false,
      "inputs": [
        {
          "indexed": true,
          "internalType": "address",
          "name": "owner",
          "type": "address"
        },
        {
          "indexed": true,
          "internalType": "address",
          "name": "spender",
          "type": "address"
        },
        {
          "indexed": false,
          "internalType": "uint256",
          "name": "value",
          "type": "uint256"
        }
      ],
      "name": "Approval",
      "type": "event"
    },
    {
      "anonymous": false,
      "inputs": [
        {
          "indexed": false,
          "internalType": "address",
          "name": "sender",
          "type": "address"
        },
        {
          "indexed": false,
          "internalType": "uint256",
          "name": "amount",
          "type": "uint256"
        }
      ],
      "name": "ReceivedFromChainA",
      "type": "event"
    },
    {
      "anonymous": false,
      "inputs": [
        {
          "indexed": false,
          "internalType": "address",
          "name": "sender",
          "type": "address"
        },
        {
          "indexed": false,
          "internalType": "uint256",
          "name": "amount",
          "type": "uint256"
        }
      ],
      "name": "SentToChainA",
      "type": "event"
    },
    {
      "anonymous": false,
      "inputs": [
        {
          "indexed": true,
          "internalType": "address",
          "name": "from",
          "type": "address"
        },
        {
          "indexed": true,
          "internalType": "address",
          "name": "to",
          "type": "address"
        },
        {
          "indexed": false,
          "internalType": "uint256",
          "name": "value",
          "type": "uint256"
        }
      ],
      "name": "Transfer",
      "type": "event"
    },
    {
      "inputs": [
        {
          "internalType": "address",
          "name": "owner",
          "type": "address"
        },
        {
          "internalType": "address",
          "name": "spender",
          "type": "address"
        }
      ],
      "name": "allowance",
      "outputs": [
        {
          "internalType": "uint256",
          "name": "",
          "type": "uint256"
        }
      ],
      "stateMutability": "view",
      "type": "function",
      "constant": true
    },
    {
      "inputs": [
        {
          "internalType": "address",
          "name": "spender",
          "type": "address"
        },
        {
          "internalType": "uint256",
          "name": "amount",
          "type": "uint256"
        }
      ],
      "name": "approve",
      "outputs": [
        {
          "internalType": "bool",
          "name": "",
          "type": "bool"
        }
      ],
      "stateMutability": "nonpayable",
      "type": "function"
    },
    {
      "inputs": [
        {
          "internalType": "address",
          "name": "account",
          "type": "address"
        }
      ],
      "name": "balanceOf",
      "outputs": [
        {
          "internalType": "uint256",
          "name": "",
          "type": "uint256"
        }
      ],
      "stateMutability": "view",
      "type": "function",
      "constant": true
    },
    {
      "inputs": [],
      "name": "decimals",
      "outputs": [
        {
          "internalType": "uint8",
          "name": "",
          "type": "uint8"
        }
      ],
      "stateMutability": "view",
      "type": "function",
      "constant": true
    },
    {
      "inputs": [
        {
          "internalType": "address",
          "name": "spender",
          "type": "address"
        },
        {
          "internalType": "uint256",
          "name": "subtractedValue",
          "type": "uint256"
        }
      ],
      "name": "decreaseAllowance",
      "outputs": [
        {
          "internalType": "bool",
          "name": "",
          "type": "bool"
        }
      ],
      "stateMutability": "nonpayable",
      "type": "function"
    },
    {
      "inputs": [
        {
          "internalType": "address",
          "name": "spender",
          "type": "address"
        },
        {
          "internalType": "uint256",
          "name": "addedValue",
          "type": "uint256"
        }
      ],
      "name": "increaseAllowance",
      "outputs": [
        {
          "internalType": "bool",
          "name": "",
          "type": "bool"
        }
      ],
      "stateMutability": "nonpayable",
      "type": "function"
    },
    {
      "inputs": [],
      "name": "name",
      "outputs": [
        {
          "internalType": "string",
          "name": "",
          "type": "string"
        }
      ],
      "stateMutability": "view",
      "type": "function",
      "constant": true
    },
    {
      "inputs": [],
      "name": "owner",
      "outputs": [
        {
          "internalType": "address",
          "name": "",
          "type": "address"
        }
      ],
      "stateMutability": "view",
      "type": "function",
      "constant": true
    },
    {
      "inputs": [],
      "name": "symbol",
      "outputs": [
        {
          "internalType": "string",
          "name": "",
          "type": "string"
        }
      ],
      "stateMutability": "view",
      "type": "function",
      "constant": true
    },
    {
      "inputs": [],
      "name": "totalSupply",
      "outputs": [
        {
          "internalType": "uint256",
          "name": "",
          "type": "uint256"
        }
      ],
      "stateMutability": "view",
      "type": "function",
      "constant": true
    },
    {
      "inputs": [
        {
          "internalType": "address",
          "name": "recipient",
          "type": "address"
        },
        {
          "internalType": "uint256",
          "name": "amount",
          "type": "uint256"
        }
      ],
      "name": "transfer",
      "outputs": [
        {
          "internalType": "bool",
          "name": "",
          "type": "bool"
        }
      ],
      "stateMutability": "nonpayable",
      "type": "function"
    },
    {
      "inputs": [
        {
          "internalType": "address",
          "name": "sender",
          "type": "address"
        },
        {
          "internalType": "address",
          "name": "recipient",
          "type": "address"
        },
        {
          "internalType": "uint256",
          "name": "amount",
          "type": "uint256"
        }
      ],
      "name": "transferFrom",
      "outputs": [
        {
          "internalType": "bool",
          "name": "",
          "type": "bool"
        }
      ],
      "stateMutability": "nonpayable",
      "type": "function"
    },
    {
      "inputs": [
        {
          "internalType": "address",
          "name": "newOwner",
          "type": "address"
        }
      ],
      "name": "changeOwner",
      "outputs": [],
      "stateMutability": "nonpayable",
      "type": "function"
    },
    {
      "inputs": [
        {
          "internalType": "uint256",
          "name": "mintableTokens",
          "type": "uint256"
        },
        {
          "internalType": "address",
          "name": "receiver",
          "type": "address"
        }
      ],
      "name": "receiveFromChainA",
      "outputs": [],
      "stateMutability": "nonpayable",
      "type": "function"
    },
    {
      "inputs": [
        {
          "internalType": "uint256",
          "name": "burnableTokens",
          "type": "uint256"
        }
      ],
      "name": "sendToChainA",
      "outputs": [],
      "stateMutability": "nonpayable",
      "type": "function"
    }
  ],
  "bytecode": "0x60806040523480156200001157600080fd5b50604051620023c6380380620023c68339818101604052810190620000379190620004d4565b82828160039080519060200190620000519291906200024c565b5080600490805190602001906200006a9291906200024c565b5050506200007f3382620000c960201b60201c565b33600560006101000a81548173ffffffffffffffffffffffffffffffffffffffff021916908373ffffffffffffffffffffffffffffffffffffffff16021790555050505062000710565b600073ffffffffffffffffffffffffffffffffffffffff168273ffffffffffffffffffffffffffffffffffffffff1614156200013c576040517f08c379a00000000000000000000000000000000000000000000000000000000081526004016200013390620005cf565b60405180910390fd5b62000150600083836200024260201b60201c565b806002600082825462000164919062000620565b92505081905550806000808473ffffffffffffffffffffffffffffffffffffffff1673ffffffffffffffffffffffffffffffffffffffff1681526020019081526020016000206000828254620001bb919062000620565b925050819055508173ffffffffffffffffffffffffffffffffffffffff16600073ffffffffffffffffffffffffffffffffffffffff167fddf252ad1be2c89b69c2b068fc378daa952ba7f163c4a11628f55a4df523b3ef836040516200022291906200068e565b60405180910390a36200023e600083836200024760201b60201c565b5050565b505050565b505050565b8280546200025a90620006da565b90600052602060002090601f0160209004810192826200027e5760008555620002ca565b82601f106200029957805160ff1916838001178555620002ca565b82800160010185558215620002ca579182015b82811115620002c9578251825591602001919060010190620002ac565b5b509050620002d99190620002dd565b5090565b5b80821115620002f8576000816000905550600101620002de565b5090565b6000604051905090565b600080fd5b600080fd5b600080fd5b600080fd5b6000601f19601f8301169050919050565b7f4e487b7100000000000000000000000000000000000000000000000000000000600052604160045260246000fd5b62000365826200031a565b810181811067ffffffffffffffff821117156200038757620003866200032b565b5b80604052505050565b60006200039c620002fc565b9050620003aa82826200035a565b919050565b600067ffffffffffffffff821115620003cd57620003cc6200032b565b5b620003d8826200031a565b9050602081019050919050565b60005b8381101562000405578082015181840152602081019050620003e8565b8381111562000415576000848401525b50505050565b6000620004326200042c84620003af565b62000390565b90508281526020810184848401111562000451576200045062000315565b5b6200045e848285620003e5565b509392505050565b600082601f8301126200047e576200047d62000310565b5b8151620004908482602086016200041b565b91505092915050565b6000819050919050565b620004ae8162000499565b8114620004ba57600080fd5b50565b600081519050620004ce81620004a3565b92915050565b600080600060608486031215620004f057620004ef62000306565b5b600084015167ffffffffffffffff8111156200051157620005106200030b565b5b6200051f8682870162000466565b935050602084015167ffffffffffffffff8111156200054357620005426200030b565b5b620005518682870162000466565b92505060406200056486828701620004bd565b9150509250925092565b600082825260208201905092915050565b7f45524332303a206d696e7420746f20746865207a65726f206164647265737300600082015250565b6000620005b7601f836200056e565b9150620005c4826200057f565b602082019050919050565b60006020820190508181036000830152620005ea81620005a8565b9050919050565b7f4e487b7100000000000000000000000000000000000000000000000000000000600052601160045260246000fd5b60006200062d8262000499565b91506200063a8362000499565b9250827fffffffffffffffffffffffffffffffffffffffffffffffffffffffffffffffff03821115620006725762000671620005f1565b5b828201905092915050565b620006888162000499565b82525050565b6000602082019050620006a560008301846200067d565b92915050565b7f4e487b7100000000000000000000000000000000000000000000000000000000600052602260045260246000fd5b60006002820490506001821680620006f357607f821691505b602082108114156200070a5762000709620006ab565b5b50919050565b611ca680620007206000396000f3fe608060405234801561001057600080fd5b50600436106100f55760003560e01c806370a0823111610097578063a457c2d711610066578063a457c2d714610288578063a6f9dae1146102b8578063a9059cbb146102d4578063dd62ed3e14610304576100f5565b806370a08231146102005780637f4d5565146102305780638da5cb5b1461024c57806395d89b411461026a576100f5565b806323b872dd116100d357806323b872dd14610166578063313ce56714610196578063347d4288146101b457806339509351146101d0576100f5565b806306fdde03146100fa578063095ea7b31461011857806318160ddd14610148575b600080fd5b610102610334565b60405161010f919061124a565b60405180910390f35b610132600480360381019061012d9190611305565b6103c6565b60405161013f9190611360565b60405180910390f35b6101506103e4565b60405161015d919061138a565b60405180910390f35b610180600480360381019061017b91906113a5565b6103ee565b60405161018d9190611360565b60405180910390f35b61019e6104e6565b6040516101ab9190611414565b60405180910390f35b6101ce60048036038101906101c9919061142f565b6104ef565b005b6101ea60048036038101906101e59190611305565b6105c6565b6040516101f79190611360565b60405180910390f35b61021a6004803603810190610215919061146f565b610672565b604051610227919061138a565b60405180910390f35b61024a6004803603810190610245919061149c565b6106ba565b005b610254610700565b60405161026191906114d8565b60405180910390f35b610272610726565b60405161027f919061124a565b60405180910390f35b6102a2600480360381019061029d9190611305565b6107b8565b6040516102af9190611360565b60405180910390f35b6102d260048036038101906102cd919061146f565b6108a3565b005b6102ee60048036038101906102e99190611305565b610977565b6040516102fb9190611360565b60405180910390f35b61031e600480360381019061031991906114f3565b610995565b60405161032b919061138a565b60405180910390f35b60606003805461034390611562565b80601f016020809104026020016040519081016040528092919081815260200182805461036f90611562565b80156103bc5780601f10610391576101008083540402835291602001916103bc565b820191906000526020600020905b81548152906001019060200180831161039f57829003601f168201915b5050505050905090565b60006103da6103d3610a1c565b8484610a24565b6001905092915050565b6000600254905090565b60006103fb848484610bef565b6000600160008673ffffffffffffffffffffffffffffffffffffffff1673ffffffffffffffffffffffffffffffffffffffff1681526020019081526020016000206000610446610a1c565b73ffffffffffffffffffffffffffffffffffffffff1673ffffffffffffffffffffffffffffffffffffffff168152602001908152602001600020549050828110156104c6576040517f08c379a00000000000000000000000000000000000000000000000000000000081526004016104bd90611606565b60405180910390fd5b6104da856104d2610a1c565b858403610a24565b60019150509392505050565b60006012905090565b600560009054906101000a900473ffffffffffffffffffffffffffffffffffffffff1673ffffffffffffffffffffffffffffffffffffffff163373ffffffffffffffffffffffffffffffffffffffff161461057f576040517f08c379a000000000000000000000000000000000000000000000000000000000815260040161057690611672565b60405180910390fd5b6105898183610e70565b7fac3b6dda6c8e2111e161b818f770018884fb0aa61a679d984b47a992eed2216e33836040516105ba929190611692565b60405180910390a15050565b60006106686105d3610a1c565b8484600160006105e1610a1c565b73ffffffffffffffffffffffffffffffffffffffff1673ffffffffffffffffffffffffffffffffffffffff16815260200190815260200160002060008873ffffffffffffffffffffffffffffffffffffffff1673ffffffffffffffffffffffffffffffffffffffff1681526020019081526020016000205461066391906116ea565b610a24565b6001905092915050565b60008060008373ffffffffffffffffffffffffffffffffffffffff1673ffffffffffffffffffffffffffffffffffffffff168152602001908152602001600020549050919050565b6106c43382610fd0565b7fe8be0f77737dcbdeb80ee988cd53a5b24f915334ced2f6ab7d40feefcd3e0bed33826040516106f5929190611692565b60405180910390a150565b600560009054906101000a900473ffffffffffffffffffffffffffffffffffffffff1681565b60606004805461073590611562565b80601f016020809104026020016040519081016040528092919081815260200182805461076190611562565b80156107ae5780601f10610783576101008083540402835291602001916107ae565b820191906000526020600020905b81548152906001019060200180831161079157829003601f168201915b5050505050905090565b600080600160006107c7610a1c565b73ffffffffffffffffffffffffffffffffffffffff1673ffffffffffffffffffffffffffffffffffffffff16815260200190815260200160002060008573ffffffffffffffffffffffffffffffffffffffff1673ffffffffffffffffffffffffffffffffffffffff16815260200190815260200160002054905082811015610884576040517f08c379a000000000000000000000000000000000000000000000000000000000815260040161087b906117b2565b60405180910390fd5b61089861088f610a1c565b85858403610a24565b600191505092915050565b600560009054906101000a900473ffffffffffffffffffffffffffffffffffffffff1673ffffffffffffffffffffffffffffffffffffffff163373ffffffffffffffffffffffffffffffffffffffff1614610933576040517f08c379a000000000000000000000000000000000000000000000000000000000815260040161092a90611672565b60405180910390fd5b80600560006101000a81548173ffffffffffffffffffffffffffffffffffffffff021916908373ffffffffffffffffffffffffffffffffffffffff16021790555050565b600061098b610984610a1c565b8484610bef565b6001905092915050565b6000600160008473ffffffffffffffffffffffffffffffffffffffff1673ffffffffffffffffffffffffffffffffffffffff16815260200190815260200160002060008373ffffffffffffffffffffffffffffffffffffffff1673ffffffffffffffffffffffffffffffffffffffff16815260200190815260200160002054905092915050565b600033905090565b600073ffffffffffffffffffffffffffffffffffffffff168373ffffffffffffffffffffffffffffffffffffffff161415610a94576040517f08c379a0000000000000000000000000000000000000000000000000000000008152600401610a8b90611844565b60405180910390fd5b600073ffffffffffffffffffffffffffffffffffffffff168273ffffffffffffffffffffffffffffffffffffffff161415610b04576040517f08c379a0000000000000000000000000000000000000000000000000000000008152600401610afb906118d6565b60405180910390fd5b80600160008573ffffffffffffffffffffffffffffffffffffffff1673ffffffffffffffffffffffffffffffffffffffff16815260200190815260200160002060008473ffffffffffffffffffffffffffffffffffffffff1673ffffffffffffffffffffffffffffffffffffffff168152602001908152602001600020819055508173ffffffffffffffffffffffffffffffffffffffff168373ffffffffffffffffffffffffffffffffffffffff167f8c5be1e5ebec7d5bd14f71427d1e84f3dd0314c0f7b2291e5b200ac8c7c3b92583604051610be2919061138a565b60405180910390a3505050565b600073ffffffffffffffffffffffffffffffffffffffff168373ffffffffffffffffffffffffffffffffffffffff161415610c5f576040517f08c379a0000000000000000000000000000000000000000000000000000000008152600401610c5690611968565b60405180910390fd5b600073ffffffffffffffffffffffffffffffffffffffff168273ffffffffffffffffffffffffffffffffffffffff161415610ccf576040517f08c379a0000000000000000000000000000000000000000000000000000000008152600401610cc6906119fa565b60405180910390fd5b610cda8383836111a7565b60008060008573ffffffffffffffffffffffffffffffffffffffff1673ffffffffffffffffffffffffffffffffffffffff16815260200190815260200160002054905081811015610d60576040517f08c379a0000000000000000000000000000000000000000000000000000000008152600401610d5790611a8c565b60405180910390fd5b8181036000808673ffffffffffffffffffffffffffffffffffffffff1673ffffffffffffffffffffffffffffffffffffffff16815260200190815260200160002081905550816000808573ffffffffffffffffffffffffffffffffffffffff1673ffffffffffffffffffffffffffffffffffffffff1681526020019081526020016000206000828254610df391906116ea565b925050819055508273ffffffffffffffffffffffffffffffffffffffff168473ffffffffffffffffffffffffffffffffffffffff167fddf252ad1be2c89b69c2b068fc378daa952ba7f163c4a11628f55a4df523b3ef84604051610e57919061138a565b60405180910390a3610e6a8484846111ac565b50505050565b600073ffffffffffffffffffffffffffffffffffffffff168273ffffffffffffffffffffffffffffffffffffffff161415610ee0576040517f08c379a0000000000000000000000000000000000000000000000000000000008152600401610ed790611af8565b60405180910390fd5b610eec600083836111a7565b8060026000828254610efe91906116ea565b92505081905550806000808473ffffffffffffffffffffffffffffffffffffffff1673ffffffffffffffffffffffffffffffffffffffff1681526020019081526020016000206000828254610f5391906116ea565b925050819055508173ffffffffffffffffffffffffffffffffffffffff16600073ffffffffffffffffffffffffffffffffffffffff167fddf252ad1be2c89b69c2b068fc378daa952ba7f163c4a11628f55a4df523b3ef83604051610fb8919061138a565b60405180910390a3610fcc600083836111ac565b5050565b600073ffffffffffffffffffffffffffffffffffffffff168273ffffffffffffffffffffffffffffffffffffffff161415611040576040517f08c379a000000000000000000000000000000000000000000000000000000000815260040161103790611b8a565b60405180910390fd5b61104c826000836111a7565b60008060008473ffffffffffffffffffffffffffffffffffffffff1673ffffffffffffffffffffffffffffffffffffffff168152602001908152602001600020549050818110156110d2576040517f08c379a00000000000000000000000000000000000000000000000000000000081526004016110c990611c1c565b60405180910390fd5b8181036000808573ffffffffffffffffffffffffffffffffffffffff1673ffffffffffffffffffffffffffffffffffffffff1681526020019081526020016000208190555081600260008282546111299190611c3c565b92505081905550600073ffffffffffffffffffffffffffffffffffffffff168373ffffffffffffffffffffffffffffffffffffffff167fddf252ad1be2c89b69c2b068fc378daa952ba7f163c4a11628f55a4df523b3ef8460405161118e919061138a565b60405180910390a36111a2836000846111ac565b505050565b505050565b505050565b600081519050919050565b600082825260208201905092915050565b60005b838110156111eb5780820151818401526020810190506111d0565b838111156111fa576000848401525b50505050565b6000601f19601f8301169050919050565b600061121c826111b1565b61122681856111bc565b93506112368185602086016111cd565b61123f81611200565b840191505092915050565b600060208201905081810360008301526112648184611211565b905092915050565b600080fd5b600073ffffffffffffffffffffffffffffffffffffffff82169050919050565b600061129c82611271565b9050919050565b6112ac81611291565b81146112b757600080fd5b50565b6000813590506112c9816112a3565b92915050565b6000819050919050565b6112e2816112cf565b81146112ed57600080fd5b50565b6000813590506112ff816112d9565b92915050565b6000806040838503121561131c5761131b61126c565b5b600061132a858286016112ba565b925050602061133b858286016112f0565b9150509250929050565b60008115159050919050565b61135a81611345565b82525050565b60006020820190506113756000830184611351565b92915050565b611384816112cf565b82525050565b600060208201905061139f600083018461137b565b92915050565b6000806000606084860312156113be576113bd61126c565b5b60006113cc868287016112ba565b93505060206113dd868287016112ba565b92505060406113ee868287016112f0565b9150509250925092565b600060ff82169050919050565b61140e816113f8565b82525050565b60006020820190506114296000830184611405565b92915050565b600080604083850312156114465761144561126c565b5b6000611454858286016112f0565b9250506020611465858286016112ba565b9150509250929050565b6000602082840312156114855761148461126c565b5b6000611493848285016112ba565b91505092915050565b6000602082840312156114b2576114b161126c565b5b60006114c0848285016112f0565b91505092915050565b6114d281611291565b82525050565b60006020820190506114ed60008301846114c9565b92915050565b6000806040838503121561150a5761150961126c565b5b6000611518858286016112ba565b9250506020611529858286016112ba565b9150509250929050565b7f4e487b7100000000000000000000000000000000000000000000000000000000600052602260045260246000fd5b6000600282049050600182168061157a57607f821691505b6020821081141561158e5761158d611533565b5b50919050565b7f45524332303a207472616e7366657220616d6f756e742065786365656473206160008201527f6c6c6f77616e6365000000000000000000000000000000000000000000000000602082015250565b60006115f06028836111bc565b91506115fb82611594565b604082019050919050565b6000602082019050818103600083015261161f816115e3565b9050919050565b7f6f6e6c79206f776e65722063616e2063616c6c00000000000000000000000000600082015250565b600061165c6013836111bc565b915061166782611626565b602082019050919050565b6000602082019050818103600083015261168b8161164f565b9050919050565b60006040820190506116a760008301856114c9565b6116b4602083018461137b565b9392505050565b7f4e487b7100000000000000000000000000000000000000000000000000000000600052601160045260246000fd5b60006116f5826112cf565b9150611700836112cf565b9250827fffffffffffffffffffffffffffffffffffffffffffffffffffffffffffffffff03821115611735576117346116bb565b5b828201905092915050565b7f45524332303a2064656372656173656420616c6c6f77616e63652062656c6f7760008201527f207a65726f000000000000000000000000000000000000000000000000000000602082015250565b600061179c6025836111bc565b91506117a782611740565b604082019050919050565b600060208201905081810360008301526117cb8161178f565b9050919050565b7f45524332303a20617070726f76652066726f6d20746865207a65726f2061646460008201527f7265737300000000000000000000000000000000000000000000000000000000602082015250565b600061182e6024836111bc565b9150611839826117d2565b604082019050919050565b6000602082019050818103600083015261185d81611821565b9050919050565b7f45524332303a20617070726f766520746f20746865207a65726f20616464726560008201527f7373000000000000000000000000000000000000000000000000000000000000602082015250565b60006118c06022836111bc565b91506118cb82611864565b604082019050919050565b600060208201905081810360008301526118ef816118b3565b9050919050565b7f45524332303a207472616e736665722066726f6d20746865207a65726f20616460008201527f6472657373000000000000000000000000000000000000000000000000000000602082015250565b60006119526025836111bc565b915061195d826118f6565b604082019050919050565b6000602082019050818103600083015261198181611945565b9050919050565b7f45524332303a207472616e7366657220746f20746865207a65726f206164647260008201527f6573730000000000000000000000000000000000000000000000000000000000602082015250565b60006119e46023836111bc565b91506119ef82611988565b604082019050919050565b60006020820190508181036000830152611a13816119d7565b9050919050565b7f45524332303a207472616e7366657220616d6f756e742065786365656473206260008201527f616c616e63650000000000000000000000000000000000000000000000000000602082015250565b6000611a766026836111bc565b9150611a8182611a1a565b604082019050919050565b60006020820190508181036000830152611aa581611a69565b9050919050565b7f45524332303a206d696e7420746f20746865207a65726f206164647265737300600082015250565b6000611ae2601f836111bc565b9150611aed82611aac565b602082019050919050565b60006020820190508181036000830152611b1181611ad5565b9050919050565b7f45524332303a206275726e2066726f6d20746865207a65726f2061646472657360008201527f7300000000000000000000000000000000000000000000000000000000000000602082015250565b6000611b746021836111bc565b9150611b7f82611b18565b604082019050919050565b60006020820190508181036000830152611ba381611b67565b9050919050565b7f45524332303a206275726e20616d6f756e7420657863656564732062616c616e60008201527f6365000000000000000000000000000000000000000000000000000000000000602082015250565b6000611c066022836111bc565b9150611c1182611baa565b604082019050919050565b60006020820190508181036000830152611c3581611bf9565b9050919050565b6000611c47826112cf565b9150611c52836112cf565b925082821015611c6557611c646116bb565b5b82820390509291505056fea264697066735822122062325214c523994b0a868ccd99a073fe963e1bfa201c01c644b2dea634f0f38f64736f6c634300080b0033",
  "immutableReferences": {},
  "source": "// SPDX-License-Identifier: MIT\npragma solidity ^0.8.0;\n\nimport \"@openzeppelin/contracts/token/ERC20/ERC20.sol\";\n\ncontract TokenB is ERC20 {\n    address public owner;\n\n    event SentToChainA(address sender, uint256 amount);\n    event ReceivedFromChainA(address sender, uint256 amount);\n\n    constructor(\n        string memory _name,\n        string memory _symbol,\n        uint256 supply\n    ) ERC20(_name, _symbol) {\n        _mint(msg.sender, supply);\n        owner = msg.sender;\n    }\n\n    modifier Owner() {\n        require(msg.sender == owner, \"only owner can call\");\n        _;\n    }\n\n    function changeOwner(address newOwner) public Owner {\n        owner = newOwner;\n    }\n\n    function receiveFromChainA(uint256 mintableTokens, address receiver)\n        public\n        Owner\n    {\n        _mint(receiver, mintableTokens);\n        emit ReceivedFromChainA(msg.sender, mintableTokens);\n    }\n\n    function sendToChainA(uint256 burnableTokens) public {\n        _burn(msg.sender, burnableTokens);\n        emit SentToChainA(msg.sender, burnableTokens);\n    }\n\n    //multiply with a factor of 10**18 to the token amount externally\n}\n",
  "sourcePath": "/Users/np/Desktop/projects/truffle projects/bridge/contracts/TokenB.sol",
  "compiler": {
    "name": "solc",
    "version": "0.8.11+commit.d7f03943.Emscripten.clang"
  },
  "schemaVersion": "3.4.3",
  "updatedAt": "2022-01-24T13:15:29.730Z",
  "networkType": "ethereum",
  "devdoc": {
    "kind": "dev",
    "methods": {
      "allowance(address,address)": {
        "details": "See {IERC20-allowance}."
      },
      "approve(address,uint256)": {
        "details": "See {IERC20-approve}. Requirements: - `spender` cannot be the zero address."
      },
      "balanceOf(address)": {
        "details": "See {IERC20-balanceOf}."
      },
      "decimals()": {
        "details": "Returns the number of decimals used to get its user representation. For example, if `decimals` equals `2`, a balance of `505` tokens should be displayed to a user as `5.05` (`505 / 10 ** 2`). Tokens usually opt for a value of 18, imitating the relationship between Ether and Wei. This is the value {ERC20} uses, unless this function is overridden; NOTE: This information is only used for _display_ purposes: it in no way affects any of the arithmetic of the contract, including {IERC20-balanceOf} and {IERC20-transfer}."
      },
      "decreaseAllowance(address,uint256)": {
        "details": "Atomically decreases the allowance granted to `spender` by the caller. This is an alternative to {approve} that can be used as a mitigation for problems described in {IERC20-approve}. Emits an {Approval} event indicating the updated allowance. Requirements: - `spender` cannot be the zero address. - `spender` must have allowance for the caller of at least `subtractedValue`."
      },
      "increaseAllowance(address,uint256)": {
        "details": "Atomically increases the allowance granted to `spender` by the caller. This is an alternative to {approve} that can be used as a mitigation for problems described in {IERC20-approve}. Emits an {Approval} event indicating the updated allowance. Requirements: - `spender` cannot be the zero address."
      },
      "name()": {
        "details": "Returns the name of the token."
      },
      "symbol()": {
        "details": "Returns the symbol of the token, usually a shorter version of the name."
      },
      "totalSupply()": {
        "details": "See {IERC20-totalSupply}."
      },
      "transfer(address,uint256)": {
        "details": "See {IERC20-transfer}. Requirements: - `recipient` cannot be the zero address. - the caller must have a balance of at least `amount`."
      },
      "transferFrom(address,address,uint256)": {
        "details": "See {IERC20-transferFrom}. Emits an {Approval} event indicating the updated allowance. This is not required by the EIP. See the note at the beginning of {ERC20}. Requirements: - `sender` and `recipient` cannot be the zero address. - `sender` must have a balance of at least `amount`. - the caller must have allowance for ``sender``'s tokens of at least `amount`."
      }
    },
    "version": 1
  },
  "userdoc": {
    "kind": "user",
    "methods": {},
    "version": 1
  }
}